:03000000020800F3
:0C080000787FE4F6D8FD758113020847EC
:10092100021200000A08C0F9A4B0999282F88090DE
:10090100E4FDFCC3ED9FEC9E5015E4FBFA0BBB002C
:0F091100010ABA04F8BBFBF50DBD00010C80E430
:0109200022B4
:10088C0075A0FFE4F5B0C290C2A7209516D2907F58
:10089C00147E00120901C2902095080513E513700F
:1008AC00020512E513640A4512700B1208D3E4F525
:1008BC0012F51375A0FF74082513F8E6F5A07F0553
:0708CC007E0012090180C348
:1008D30075A0FFC2A4C2A6C2A5C2A0900001C2A770
:1008E3007F327E00120901D2A7120901A3E58264B7
:0D08F30006458370E9D2A4D2A6D2A5D2A0FA
:0109000022D4
:10080C0002088CE493A3F8E493A34003F68001F26E
:10081C0008DFF48029E493A3F85407240CC8C333ED
:10082C00C4540F4420C8834004F456800146F6DFBC
:10083C00E4800B0102040810204080900921E47E22
:10084C00019360BCA3FF543F30E509541FFEE493B1
:10085C00A360010ECF54C025E060A840B8E493A378
:10086C00FAE493A3F8E493A3C8C582C8CAC583CAA3
:10087C00F0A3C8C582C8CAC583CADFE9DEE780BE5B
:0109310000C5
:00000001FF
