:10085300E4FDFCD3ED9FEC9E5015E4FBFA0BBB00CB
:0F086300010ABA04F8BBFBF50DBD00010C80E4DF
:010872002263
:10080000C2A0C2A1C2A2C2A3C2A4C2A5C2A6C2A7BC
:100810007F0A7E00120853D2A0120853C2A0D2A1B0
:10082000120853C2A1D2A2120853C2A2D2A3120824
:1008300053C2A3D2A4120853C2A4D2A5120853C211
:10084000A5D2A6120853C2A6D2A7120853C2A7D295
:03085000A080BDC8
:0300000002087380
:0C087300787FE4F6D8FD758107020800CC
:00000001FF
