:030000000208AD46
:0C08AD00787FE4F6D8FD75811D0208F488
:1009EF00020A0000020800000216000002180000B0
:1009FF00021C0000021A00000A0CC0F9A4B0999260
:040A0F0082F8809059
:1008000075A0FF75B0FFC290E51D6432451C7048AD
:10081000F51CF51D0509E509700205086464450825
:100820007007F508F50912093985080A85090BAE24
:100830000AAF0B7C007D0A12099A8C168D17AE0A3E
:10084000AF0B7C007D0A12099A8E0A8F0B7C007D0B
:100850000A12099A8C188D19D2B4C2B5740C2517D6
:10086000F8E6F5A0E4F51AF51B051BE51B7002057B
:100870001AB4DCF5E51AB405F0051DE51D70020596
:100880001CD2B5C2B4740C2519F8E6F5A0E4F51A2B
:10089000F51B051BE51B7002051AB4DCF5E51AB45F
:0D08A00005F0051DE51D7002051C0208088D
:10093900E4F5B075A0FFC2A7E4FEFFE4F51AF51BC4
:10094900051BE51B7002051AB4FBF5E51AB404F0A2
:100959000FBF00010EEF64C84E70E0D2A7E4FEFF9E
:10096900E4F51AF51B051BE51B7002051AB4FBF526
:10097900E51AB404F00FBF00010EEF64C84E70E031
:100989000FBF00010ED3EF9404EE6480948040A65B
:01099900223B
:1008B900020800E493A3F8E493A34003F68001F24D
:1008C90008DFF48029E493A3F85407240CC8C33340
:1008D900C4540F4420C8834004F456800146F6DF0F
:1008E900E4800B01020408102040809009EFE47EA7
:1008F900019360BCA3FF543F30E509541FFEE49304
:10090900A360010ECF54C025E060A840B8E493A3CA
:10091900FAE493A3F8E493A3C8C582C8CAC583CAF5
:10092900F0A3C8C582C8CAC583CADFE9DEE780BEAD
:010A130000E2
:10099A00BC000BBE0029EF8DF084FFADF022E4CC41
:1009AA00F875F008EF2FFFEE33FEEC33FCEE9DEC0A
:1009BA00984005FCEE9DFE0FD5F0E9E4CEFD22ED50
:1009CA00F8F5F0EE8420D21CFEADF075F008EF2F9A
:1009DA00FFED33FD4007985006D5F0F222C398FD8B
:0509EA000FD5F0EA2228
:00000001FF
