:030000000208C62D
:0C08C600787FE4F6D8FD75810902085621
:0808560075A0FFE4F5B0C290AB
:10085E00209532750800750909C3E50864809480F7
:10086E0040EED290AF09AE081208007F907E0112C2
:10087E000898C2907F907E01120898E509150970BC
:08088E00D8150880D41208B14E
:0208960080C61A
:10089800EF4E60147D737C00ED1D70011CED4C70F3
:0808A800F7EF1F70EB1E80E862
:0108B0002225
:10080000EE7052EFB40A00504C900810F82828738C
:1008100002085202082E02083202083602083A0282
:10082000083E02084202084602084A02084E75A025
:10083000F92275A0A42275A0B02275A0992275A0F6
:10084000922275A0822275A0F82275A0802275A040
:06085000902275A0C022F9
:1008B10075A0FFC2A77F647E00120898D2A77F644B
:0508C1007E0002089812
:00000001FF
